:020000040800F2
:1000000070160020FD1F00080520000807200008CA
:10001000092000080B2000080D2000080000000047
:100020000000000000000000000000000F20000899
:10003000112000080000000013200008152000080F
:1000400017200008172000081720000817200008B4
:1000500017200008172000081720000817200008A4
:100060001720000817200008172000081720000894
:100070001720000817200008172000081720000884
:100080001720000817200008172000081720000874
:100090001720000817200008172000081720000864
:1000A0001720000817200008172000081720000854
:1000B0001720000817200008172000081720000844
:1000C0001720000817200008172000081720000834
:1000D0001720000817200008172000081720000824
:1000E000172000081720000817200008DFF80CD0A0
:1000F00002F06EFC004800477B01000870160020EB
:1001000070B586B00121042002F0F9F90424ADF89D
:10011000044001258DF8065018208DF80700484E40
:1001200001A9304601F0E5FF0821ADF804108DF873
:1001300006508DF8074001A9304601F0DAFF012191
:10014000480402F0E7F94FF4614002900020ADF856
:100150000C00ADF80E00ADF81000ADF814000C2046
:10016000ADF81200374C02A9204602F067FA0121CF
:10017000204602F0DEFA06B070BDFFF7C1FF00F0C6
:100180003EFC3148006800F01DFE002440F6146675
:1001900004F1006000F069FE04F58064B442F7D316
:1001A00000252A4F4FF480684246284905F1006037
:1001B00000F06EFA002426A0395D02F069FC641C90
:1001C0004445F8D324A002F063FC05F58065B542F0
:1001D000EAD300241C4D2D1D2919424604F100606C
:1001E00000F018FE04F58064B442F5D300254246C1
:1001F000164905F1006000F04BFA002414A0395DA7
:1002000002F046FC641C4445F8D313A002F040FC05
:1002100005F58065B542EAD3062000F051FCFEE703
:1002200070B50446074D8021284602F050FB002897
:10023000F9D0A1B2284602F0DDFA204670BD0000D8
:10024000000801400044004004000020540E00203B
:1002500025303258200000000D0A0D0A0D0A00005A
:1002600008B5FA494FF4C0400860ADF8000010200E
:100270008DF8030003208DF80200F4486946103819
:1002800001F037FF08BD08B54FF4C040ADF80000DD
:1002900004208DF80300ED486946103801F029FF6D
:1002A00008BDEB494FF47A620968B1FBF2F14143B2
:1002B000002001E000BF401C8842FBD3704710B50E
:1002C000002305E0DC0021FA04F4C4545B1CDBB21B
:1002D0009342F7D310BD70B505460E460024314653
:1002E000284601F095FD022803D1641CE4B20A2CD3
:1002F000F5D370BD10B501F075FAFFF7B1FF01201D
:1003000010BD10B5FFF7BFFF012010BD38B50C467A
:1003100000F00C00801C6946FFF7DDFF0022226020
:100320009DF8031042EA016121609DF8022041EA34
:10033000024121609DF8012041EA022121609DF8DF
:10034000002011432160012800D0002038BD38B5BD
:10035000082806D1BF4A13688B4201D1012038BD5D
:10036000116000F00C0404226846FFF7A8FF6946FC
:100370002046FFF7B0FF0128F1D0002038BD38B586
:1003800005460C4605F07F4105F0F00001430820CA
:10039000FFF7DDFF18B305F00C05ED1C6946284694
:1003A000FFF799FF69462846FFF795FF0022226074
:1003B0009DF8031042EA016121609DF8022041EAA4
:1003C000024121609DF8012041EA022121609DF84F
:1003D000002011432160012800D0002038BD0020FA
:1003E00038BD38B504460D4604F07F4104F0F000F6
:1003F00001430820FFF7ABFF08B14CB901E0002032
:1004000038BD94484168A94201D1012038BD4560FA
:1004100004F00C04641C042229466846FFF74FFFD1
:1004200069462046FFF757FF012801D0002038BD5C
:100430000E200021FFF74FFF0128F8D0002038BD23
:10044000F8B507460D46002A13D0960882490020C9
:10045000FFF7C7FF78B10524042239466846FFF745
:100460002EFF69462046FFF736FF012805D0002001
:10047000F8BD0020F8BD0020F8BD0D27002409E0DC
:1004800029463846FFF727FF012801D00020F8BD94
:100490002D1D641CB442F3D30E200021FFF71BFF77
:1004A0000128F4D00020F8BDF8B507460D46002A13
:1004B00013D0960868490020FFF793FF78B1052410
:1004C000042239466846FFF7FAFE69462046FFF7E0
:1004D00002FF012805D00020F8BD0020F8BD002053
:1004E000F8BD0F2700213846FFF7F5FE012801D09F
:1004F0000020F8BD0024761E09E029463846FFF7A3
:10050000EAFE012801D00020F8BD2D1D641CB44274
:10051000F3D30E202946FFF7DEFE0128F4D0002099
:10052000F8BD1CB50C460146042201A8FFF7C7FE22
:10053000052001A9FFF7CFFE012801D000201CBD36
:100540000F206946FFF7C7FE012801D000201CBD1F
:100550000E206946FFF7BFFE002222609DF80310BF
:1005600042EA016121609DF8022041EA02412160D6
:100570009DF8012041EA022121609DF800201143ED
:1005800021600128E3D000201CBD38B50C4601468F
:1005900004226846FFF793FE05206946FFF79BFE9D
:1005A000012801D0002038BD042221466846FFF70B
:1005B00086FE0D206946FFF78EFE012801D000203F
:1005C00038BD0E200021FFF786FE012801D0002053
:1005D00038BD012038BD70B504460D461E490020C7
:1005E000FFF7FFFE30B129462046FFF79AFF18B10A
:1005F000012070BD002070BD002070BD70B50446A4
:100600000D4615490020FFF7ECFE30B12946204683
:10061000FFF7BBFF18B1012070BD002070BD0020A6
:1006200070BD38B505460C460B490020891EFFF702
:10063000D8FE98B169462846FFF773FF80B1A80736
:10064000C20E0098D0402070012038BD100C01402F
:10065000280E00201C0E0020520000230020F4E78A
:100660000020F2E770B505460C46F7490020FFF779
:10067000B8FE48B1A807C00E04FA00F12846FFF7FB
:1006800084FF18B1012070BD002070BD002070BD36
:100690002DE9F04105460E46144607E0314628464E
:1006A000FFF7BFFF40B16D1C761C641E0CB1A8079C
:1006B000F4D1DFF8988314E00020BDE8F081D8F889
:1006C0000000411E2940471ABC4201D224F0030712
:1006D0003A4631462846FFF7E7FE28B13D443E44FE
:1006E000E41B032CEBD809E00020E6E7314628465E
:1006F000FFF797FF30B16D1C761C641E002CF5D1FE
:100700000120DAE70020D8E72DE9F04105460E4642
:10071000144607E031782846FFF7A4FF40B16D1C6E
:10072000761C641E0CB1A807F4D1DFF8208313E017
:100730000020C2E7D8F80000411E2940471ABC42F9
:1007400001D224F003073A4631462846FFF778FEE7
:1007500028B13D443E44E41B032CEBD809E00020C3
:10076000ABE731782846FFF77DFF30B16D1C761C72
:10077000641E002CF5D101209FE700209DE773B592
:10078000064600246425B2480199FFF737FF48B1B7
:10079000AF4846F48031001FFFF730FF20B1AC4E68
:1007A000083E10E000207CBD00207CBD01A9304641
:1007B000FFF711FF20B10198C00303D501207CBDD4
:1007C00000207CBD641CAC42F0DB00207CBD38B551
:1007D000054600210820FFF7BAFD70B3002420462B
:1007E00055F82410FFF7CBFF40B3641C042CF6D35C
:1007F0000920696AFFF7C3FF28B30D24204655F886
:100800002410FFF7BCFF00B3641C102CF6D310209B
:10081000296CFFF7B4FFD0B18D488E490838FFF737
:10082000EDFEB0B169460420FFF770FD98B1009865
:1008300010F0A00F11D0002007E700E001E0002039
:1008400003E7002001E70020FFE60020FDE600208E
:10085000FBE60020F9E60020F7E60120F5E62DE9A9
:10086000F0410E460024642501467948001FFFF739
:10087000C5FE10B1764F083F0AE000201DE7314663
:100880003846FFF7A8FE48B13068C00302D4641CA4
:10089000AC42F4DBAC4203D100200EE700200CE7B1
:1008A00031466B48FFF797FE08B1012005E70020AD
:1008B00003E7F8B5684D0024654E083E0CE0694634
:1008C0003046FFF788FE20B10098800303D5012051
:1008D000F8BD0020F8BD641CAC42F0D30020F8BD88
:1008E0002DE9F04391B00446DDE9187889461546B4
:1008F0001E464421684602F02EF8009501960297A4
:10090000CDF80C8060680990A0680D9020680E906A
:10091000CDF83C904FF0807010906846FFF757FF7D
:1009200068B1FFF7C6FF60B169460020FFF797FF87
:1009300048B1009848B1002011B0BDE8F083002014
:10094000FAE70020F8E70020F6E70120F4E71CB5FD
:1009500000206A46FF211154401CC0B20828FAD377
:100960006946332000F050FF01201CBD08B58DF80A
:100970000000000A8DF801006946102000F044FFD5
:10098000012008BD1CB504460020019001A90820E3
:1009900000F03AFF69460020FFF7B8FC012801D0BB
:1009A00000201CBD9DF800009DF803109DF801205B
:1009B00040EA01609DF80210090441EA022108435F
:1009C000206001201CBD08B500200090FFF7BFFF8C
:1009D00068B14EF29E70FFF7C9FF50B1FFF7B7FF45
:1009E00048B16846FFF7CEFF38B1012008BD0020AE
:1009F00008BD002008BD002008BD002008BDF8B5D6
:100A000000200090002464251449401E08604860BE
:100A1000FFF770FCFFF7D7FF90B11E210020FFF712
:100A200096FC78B100210820FFF791FCC0B14FF08F
:100A3000A0410420FFF78BFCA0B14FF020461DE041
:100A40000020F8BD0020F8BD500000230000002069
:100A5000F8ED00E001005FA040420F001C0E0020F6
:100A60000020F0E70020EEE769460420FFF74EFC87
:100A700050B1009936EA010002D0641CAC42F3DBAD
:100A8000AC4203D10020DEE70020DCE7C9490420A6
:100A9000FFF75DFC30B100210820FFF758FC18B1CA
:100AA0000120D0E70020CEE70020CCE7002806D1C7
:100AB000C1480168C14A01F4E06111439EE57047F5
:100AC000F8B505460224062D01D0FFF713FCBC49FA
:100AD000B94E4F1CE436072D7DD2DFE805F0041730
:100AE000085D6387A2000120FFF7E0FF95E0012089
:100AF000FFF7DCFF1420FFF7D4FB0020FFF7D6FF41
:100B00001420FFF7CEFBFFF7FCFB86E0FFF777FF33
:100B100008B1354613E0002095E7641E64B2002C4E
:100B200001DC00208FE70120FFF7C0FF1420FFF752
:100B3000B8FB0020FFF7BAFF1420FFF7B2FB3946DD
:100B40002846FFF75BFD0028E7D09B4C0121F034DD
:100B50002046FFF753FDC8B10120FFF7A7FF14207F
:100B6000FFF79FFB0020FFF7A1FF1420FFF799FB81
:100B700069462846FFF72FFD50B100988003F7D54E
:100B800000212046FFF73AFD20B146E000205AE759
:100B9000002058E7002056E73046FFF72FFD78BBCE
:100BA000002050E7FFF70FFFB0B11E210020FFF734
:100BB000CEFB98B100210820FFF7C9FB80B14FF0B0
:100BC000A0410420FFF7C3FB60B139463046FFF770
:100BD00015FD48B121E02AE0002034E7002032E78B
:100BE000002030E700202EE700202CE7FFF707FF6A
:100BF00038B173493046C91CFFF700FD18B104E055
:100C00000BE000201FE700201DE769463046FFF794
:100C1000E2FC20B100988003F7D5012013E7002003
:100C200011E73046FFF7EAFC18B1FFF76AFB002036
:100C300009E7002007E7F8B50446062C01D0FFF7C6
:100C400059FB5F4E5C4DF61CF11EE435072C7DD23E
:100C5000DFE804F004170860668CA6000120FFF7A7
:100C600025FF99E00120FFF721FF1420FFF719FB72
:100C70000020FFF71BFF1420FFF713FBFFF741FBDA
:100C80008AE0FFF7BCFE30B12C4631462046FFF724
:100C9000B5FC10B103E00020D5E60020D3E669469C
:100CA0002046FFF798FC48B300988003F7D5424DE3
:100CB0000121F0352846FFF7A1FC08B33E4E6946F6
:100CC0003046FFF788FCE8B1009800F4E0613B484B
:100CD00001433046FFF792FCB0B11420FFF7E1FA70
:100CE00069462046FFF777FC80B100988003F7D56E
:100CF00000212846FFF782FC50B14DE00020A2E61B
:100D00000020A0E600209EE600209CE600209AE657
:100D1000002098E62846FFF771FC80BB002092E691
:100D2000FFF751FEC0B11E210020FFF710FBA8B154
:100D300000210820FFF70BFB90B14FF0A0410420E9
:100D4000FFF705FB70B11E49491C00E02EE0284664
:100D5000FFF754FC40B11FE0002074E6002072E66B
:100D6000002070E600206EE600206CE6FFF747FEEC
:100D700030B131462846FFF741FC18B104E00BE0E2
:100D8000002060E600205EE669462846FFF723FC67
:100D900020B100988003F7D5012054E6002052E6E8
:100DA0002846FFF72BFC18B1FFF7ABFA00204AE604
:100DB000002048E6000F00500CED00E00400FA05AA
:100DC00000005FA07CB505460120FFF779FE98B1D1
:100DD000374CD4E90A21606AFFF796FC70B1002015
:100DE0000090019003462A4604F114002168FFF7A1
:100DF00077FD28B100207CBD03207CBD04207CBD94
:100E000006207CBD10B50220FFF75AFEFFF779FAE5
:100E1000002010BD2DE9FC41074688461446244EAB
:100E20001AE0306BA04201D2356B00E025462A461D
:100E30004146306AFFF768FC98B10021306ACDE97D
:100E400000011B483A461430336B3169FFF748FD07
:100E500048B12F44A844641B002CE2D10020BDE817
:100E6000FC810520FBE70B20F9E71CB50021009170
:100E700001910F4902460E48C96800231430FFF75C
:100E80002FFD08B100201CBD09201CBD1CB500248D
:100E9000002000900190064800231A468168143013
:100EA000FFF71EFD08B120461CBD0A201CBD000036
:100EB0008030000808B5FF494FF4C0400860ADF825
:100EC000000010208DF8030003208DF80200F9487F
:100ED0006946103801F00DF908BD08B54FF4C0405F
:100EE000ADF8000004208DF80300F2486946103880
:100EF00001F0FFF808BD10B50121082001F0FFFA4C
:100F0000BDE81040E9E7002070470022062824D001
:100F100006DC052821D2DFE800F0202020200C008C
:100F2000F0280DD0FD2818D0FE2813D0FF2814D1AA
:100F30000AE0E14802680A600079087105220CE0C5
:100F400011200870012208E040200870002048703D
:100F5000022202E00120087001221046704745F687
:100F6000C0514843401EFDD170470278407842EAA4
:100F7000002000EB4000C000401EFDD10870CF48AB
:100F800070470278CD48002A04D0012A02D0FF22FF
:100F90000A70704700220A70704770B50D460478D9
:100FA000002C00D10124012C04D000242C704FF01F
:100FB000011070BDC24901200870FFF77BFFF5E703
:100FC00070B50446BE4900250D70FFF786FF2570F9
:100FD000012070BD10B50446FFF795FF607000203A
:100FE0002070022010BDF0B5037842788478C5786F
:100FF00044EA0524057940792D0445EA006004435C
:10100000AC4DD00705F1040606D0DF074FF40050C1
:1010100001D0286000E03060900706D59F074FF4AC
:10102000804001D5286000E03060A24E361F371F97
:10103000002084B3A34DAC4200D92C464FF0E025EC
:10104000A86104EBC404E4006C6105242C61D4079E
:1010500004D03468C4F340349C4216D1940705D5BB
:101060003C68C4F38034B4EB530F0ED1540702D55F
:10107000B0EB930F09D1940602D5B0EB531F04D106
:10108000140607D5B0EBD31F04D02C69C4F3004479
:10109000002CDCD028613068C0F340303A68C2F3DD
:1010A000803240EA420008708748F0BD30B50278CF
:1010B000437842EA03228378C0781B0443EA006045
:1010C00002438248002A08D0814D00247C4BAA426A
:1010D00006D301225A705A600FE0FF220A7030BD19
:1010E0005C707C4D1544B5FBF2F2022A03D903254E
:1010F000B2FBF5F200E001225A600C7030BD70B511
:101100000D4610F8014B0146002C01D14FF48074BC
:10111000204600F079FB00202870E41DE008401C08
:101120000004401C70BD0078654A00F003035B1C9E
:101130001375C0F380005075002008704FF0011047
:10114000704710B5FF220A700122012410F8013BFC
:101150000AE010F8011B01F03F0101B94021C91D4F
:10116000C90808440A44521C5B1E591CF1D1204690
:1011700062F31F4010BD0078FF220A70401C00047B
:10118000401C7047FF2008704FF00110704710B5E9
:101190004B4A037813724378847843EA04235381DB
:1011A000C378007943EA00209081002008704A4803
:1011B00010BD2DE9F04F87B004460694002004903E
:1011C00005918D1CDFF814A100218AF8001000277A
:1011D00003916678A41C002E6AD014F8018B5FEA94
:1011E000887166D587B33648B0F80A9008F01100C8
:1011F00001280DD101A9404600F00AFE022815D1B0
:10120000B9F1010912D39AF800100029F2D00DE0CB
:1012100001A90E2000F0FCFD022806D1B9F1010958
:1012200003D39AF800100029F2D0002701283FD1FB
:10123000019929700199090A69700199090CA9702D
:101240000199090EE9702D1D5FEAC86168D5207803
:101250006178E27840EA0120A178090441EA02615C
:1012600008430290241D1648B0F80CB05FEAC8701D
:1012700011D01348B0F80A900021404600F0C8FD94
:10128000022806D1B9F1010903D39AF80010002908
:10129000F2D001280CD10A48B0F80A9001A94046C2
:1012A00000F0B6FD02281FD1B9F101091CD317E0E7
:1012B000B4E06BE0100C0140B43000080100020003
:1012C00054120020C0C62D000100060001000400D9
:1012D00080A81201FF50250201000500240E002005
:1012E0009AF800100029D9D001280DD1F949019AA6
:1012F00009691140029A914206D0BBF1010B03D358
:101300009AF800100029C6D0F249019A09691140E3
:10131000029A914201D040F0100001287ED132E0C3
:10132000EC49B1F80A905FEAC87111D05FBB0021A7
:10133000404600F06DFD022806D1B9F1010903D342
:101340009AF800100029F2D0012872D101271AE082
:1013500001A9404600F05CFD022806D1B9F101095F
:1013600003D39AF800100029F2D0012861D1019925
:1013700029700199090A69700199090CA9700199EC
:10138000090EE9702D1D0021039146E0F7B1D14807
:10139000B0F80A9001A90E2000F03AFD022806D10B
:1013A000B9F1010903D39AF800100029F2D00128FD
:1013B0003FD1019828700198000A68700198000CCC
:1013C000A8700198000EE8702D1D00272078617824
:1013D000E27840EA0120A178090441EA0261084369
:1013E0000190241D5FEA886103D5BA490861012094
:1013F00013E0B848B0F80A9001A9404600F008FD93
:10140000022806D1B9F1010903D39AF80010002986
:10141000F2D001280DD10121039100E009E00499E7
:10142000491C04919AF8001019B9761E002E7FF419
:10143000D4AE5EB114F8011B8A0703D5C90602D5E4
:10144000241D00E0241D761E002EF3D101282FD18B
:10145000EFB1A048468901A90E2000F0D9FC02286E
:1014600006D1761E711C03D09AF800100029F2D024
:1014700001281DD1019929700199090A6970019902
:10148000090CA9700199090EE9702D1D10E003994E
:1014900071B19048468900210E2000F0B9FC022865
:1014A00006D1761E711C03D09AF800100029F2D0E4
:1014B000DDE904121170059948700598291A0698FB
:1014C00007B0201A41EA0040BDE8F08F30B504466D
:1014D0004278801C002A0BD010F8013B9D0703D5F1
:1014E000DB0602D5001D00E0001D521E002AF3D1CC
:1014F00000220A704A70001B0004801C30BD754A2F
:101500001278012A00D0E1E753E62DE9F84F0446AE
:10151000002600208946CF1CDFF8BCA100218AF8F4
:101520000010641C2178627841EA0225A41C002D79
:1015300074D014F8018BDFF89CB15FEA88715BD539
:101540005FEAC87135D0BBF80A400021404600F080
:101550005FFC022806D1641E611C03D09AF80010BB
:101560000029F2D0012859D123E025B95FEAC870DB
:1015700001D04FF00E08BBF80A406946404600F023
:1015800047FC022806D1641E611C03D09AF80010A3
:101590000029F2D0012841D1009939700099090A37
:1015A00079700099090CB9700099090EF9703F1D06
:1015B000761C6D1E691CD8D130E020786178E27805
:1015C00040EA0120A178090441EA02610843009041
:1015D000241D4048B0F80AB06946404600F018FCA7
:1015E000022806D1BBF1010B03D39AF800100029A1
:1015F000F2D0012812D1761C6D1E681CDDD1354851
:10160000448900210E2000F003FC022806D1641E4C
:10161000611C03D09AF800100029F2D089F800600C
:10162000310A89F8011089F80200A7EB0900BDE82A
:10163000F88F10B504462748007801280AD000200A
:101640000870487088700320E178890706D540F457
:10165000802010BD2046FFF758FFF5E76178A2789B
:1016600041EA0221042202EB810140EA014010BD5F
:1016700038B50C464178827841EA0222C178007977
:10168000090441EA0060024300926946002000F02C
:10169000BFFB00202070012038BD10B50D4A127824
:1016A000012A05D0FF200870012040F4A02010BDC1
:1016B000FFF7DEFFF9E7FF2008704FF001107047D9
:1016C00010B50278A2F180031F2B07D8FFF7F3FFB4
:1016D00010BD000054120020240E002001F8012B40
:1016E0000C4610F8011B172957D2DFE801F00C1443
:1016F000181C44484C565020245656565656282CF2
:101700003034383C40000078611CFFF7FEFB20704D
:1017100000F10210DCE72146FFF733FC3AE02146F6
:10172000FFF73BFC36E02046FFF74AFC32E021465B
:10173000FFF71BFC2EE02046FFF74CFC2AE0214679
:10174000FFF751FC26E02146FFF7B0FC22E02146DE
:10175000FFF7D5FC1EE02146FFF7E5FC1AE0214625
:10176000FFF7EFFC16E02146FFF705FD12E02146EA
:10177000FFF708FD0EE02146FFF709FD0AE02146CC
:10178000FFF7BDFE06E02146FFF753FF02E02146CA
:10179000FFF783FF00F101109AE7FF2004F8010C26
:1017A0004FF0011094E72DE9F04102787F2A02D032
:1017B000BDE8F04184E70A704478851C4C708E1CAB
:1017C0004FF0021708E031462846FFF779FF07443B
:1017D00005EB104580B20644641E601CF3D1384608
:1017E000BDE8F08107480021017041700722426086
:1017F0000172642242818181016101220275417579
:10180000FFF779BB541200202DE9F041002200239C
:10181000FF4F4FF48046A7F1040C4FF40058FD4CE5
:10182000656815E013B911F8012B0823D40702D01D
:10183000CCF8006000E03E60C7F800802C46641ED3
:10184000FDD1CCF800802C46641EFDD152085B1EF1
:10185000401E441CE6D1BDE8F0812DE9F35F05464A
:10186000012000F0E0FADFF8A8934FF40058C9F81F
:101870000080A9F1040ACAF80080284600F0D3FAD3
:10188000C9F80080CAF800806C08204600F0CBFA46
:10189000C9F80080CAF800802E19AC08204600F074
:1018A000C2FAC9F80080CAF800802644EC08204635
:1018B00000F0B9FAC9F80080CAF80080301900F0C9
:1018C000B2FAC9F80080CAF80080002000F0ABFA34
:1018D000C9F80080CAF80080012000F0A4FAC9F815
:1018E0000080CAF8008000F0BAFADFF828B39BF84D
:1018F000140030B1C9F80080CAF80080401E0028EA
:10190000F8D1C9F8008000F089FACAF800800446CE
:10191000C9F8008000F082FA0146CAF8008044EA63
:101920004104C9F8008000F079FACAF8008044EA5E
:101930008004012C16D0022C77D0042C75D09BF893
:101940001400213030B1C9F80080CAF80080401E70
:101950000028F8D100F073FA012000F064FAE0B238
:10196000BDE8FC9FA8072AD5002700262025C9F836
:10197000008000F053FACAF800800644790841EA72
:10198000C0776D1E002DF2D1C9F8008000F046FA34
:10199000CAF800804640F00700D00824019808B13A
:1019A000019807609BF8140030B1C9F80080CAF8AC
:1019B0000080401E0028F8D100F041FA22E09BF898
:1019C000140030B1C9F80080CAF80080401E002819
:1019D000F8D100F034FA019805680027202628463F
:1019E00000F021FAC9F80080CAF800802F446D0881
:1019F000761E002EF3D1384600F015FAC9F80080A3
:101A0000CAF800809BF808504DB1002000F00BFA96
:101A1000C9F80080CAF800806D1E002DF8D10120A1
:101A200000F001FAE0B29BE7FFE79BF8150048B130
:101A3000A80707D52120C9F80080CAF80080401EF9
:101A40000028F8D19BF8140030B1C9F80080CAF81A
:101A50000080401E0028F8D100F0F1F99BF8150035
:101A600060B1A8070AD4002000F0DDF92120C9F8F0
:101A70000080CAF80080401E0028F8D1012000F044
:101A8000D2F9E0B26CE72DE9F35F064600250120AC
:101A900000F0C9F9DFF878A14FF40059CAF80090B6
:101AA000DFF870B1DBF804000146401EFDD1584C50
:101AB000241FC4F80090491EFDD1304600F0B3F950
:101AC000CAF80090DBF804000146491EFDD1C4F8B5
:101AD0000090401EFDD1AF197508284600F0A3F90B
:101AE000CAF80090DBF804000146491EFDD1C4F895
:101AF0000090401EFDD12F44B508284600F093F910
:101B0000CAF80090DBF804000146491EFDD1C4F874
:101B10000090401EFDD12F44F508284600F083F9BF
:101B2000CAF80090DBF804000146491EFDD1C4F854
:101B30000090401EFDD1781900F075F9CAF80090A8
:101B4000DBF804000146401EFDD1C4F80090491E98
:101B5000FDD1002000F067F9CAF80090DBF804001E
:101B60000146401EFDD1C4F80090491EFDD1012060
:101B700000F059F9CAF80090DBF804000146491E4C
:101B8000FDD1C4F80090401EFDD100F068F99BF82B
:101B9000141071B1DBF80420CAF800901046401E02
:101BA000FDD1C4F800901046401EFDD1491E002909
:101BB000F2D1CAF80090DBF80400401EFDD100F01D
:101BC0002DF90546C4F80090DBF804000146401EDC
:101BD000FDD1CAF80090491EFDD100F01FF9024660
:101BE000C4F80090DBF804000146491EFDD145EA27
:101BF0004205CAF80090401EFDD100F00FF90246E0
:101C0000C4F80090DBF804100846401EFDD103E044
:101C1000140C01405412002045EA8205012D1BD00E
:101C2000022D7CD0042D7AD09BF81420213262B191
:101C3000CAF800900846401EFDD1C4F8009008463E
:101C4000401EFDD1521E002AF2D100F0F8F801200A
:101C500000F0E9F8E8B283E6B00743D54FF000089A
:101C600000272026CAF80090DBF80400401EFDD1B2
:101C700000F0D4F8C4F80090DBF80410491EFDD140
:101C800007444FEA580141EAC078761E002EE9D198
:101C90004E46CAF80090DBF80400401EFDD100F06B
:101CA000BDF82660DBF804105A46491EFDD14740B6
:101CB000F80700D00825019810B10198C0F80080FD
:101CC000117D61B15268CAF800601046401EFDD116
:101CD00026601046401EFDD1491E0029F3D100F0B8
:101CE000AEF839E09BF8142062B1CAF800900846BB
:101CF000401EFDD1C4F800900846401EFDD1521E82
:101D0000002AF2D100F09BF8019806684FF0000815
:101D10002027304600F087F8CAF8009000E035E050
:101D2000DBF804100846401EFDD1C4F80090491E9F
:101D3000FDD1B04476087F1E002FEAD1404600F066
:101D400072F84A46CAF80090DBF804000146401ECB
:101D5000FDD12260491EFDD19BF808608EB10020A4
:101D600000F061F8DBF80410CAF800900846401E45
:101D7000FDD1C4F800900846401EFDD1761E002E0D
:101D8000F2D1012000F04FF8E8B2E9E59BF8150028
:101D900078B1B0070DD52122CAF800900846401E40
:101DA000FDD1C4F800900846401EFDD1521E002A05
:101DB000F2D19BF8142062B1CAF800900846401E88
:101DC000FDD1C4F800900846401EFDD1521E002AE5
:101DD000F2D100F034F89BF81500A0B1B00712D48E
:101DE000002000F020F82121DBF80420CAF8009040
:101DF0001046401EFDD1C4F800901046401EFDD193
:101E0000491E0029F2D1012000F00DF8E8B2A7E543
:101E10001B4A5278002A00D01FE534E619480068B2
:101E2000C0F380307047C1074FF4804003D015499C
:101E300008310860704713490C3108607047114839
:101E4000001F016821F070610160016841F040717C
:101E500001600C494FF480400C310860704709481C
:101E6000001F016821F070610160016841F00061AC
:101E7000016004494FF48040083108607047000059
:101E800054120020080C01400CB50022019200926F
:101E90005248016841F4803101604FF4A063016849
:101EA00001F4003100910199491C0191009911B987
:101EB00001999942F3D10168890302D5012100916A
:101EC00000E000920099012930D145490A6842F0AA
:101ED00010020A600A6822F003020A600A6842F0EF
:101EE00002020A604168416041684160416841F412
:101EF00080614160416821F47C114160416841F496
:101F0000E8114160016841F0807101600168890158
:101F1000FCD5416821F003014160416841F00201B4
:101F200041604168C1F381010229FAD10CBDABE7E0
:101F300010B52A48016841F0010101604168294A51
:101F4000114041600168284A11400160016821F494
:101F500080210160416821F4FE0141604FF41F01BE
:101F60008160FFF7E4FF21494FF00060086010BD79
:101F700010B51A4A506800F00C011D4B1D4800298D
:101F80000ED004290ED008290ED003605168194ADA
:101F9000C1F30311121D515C0268CA40026010BDFA
:101FA0000360F3E70360F1E7516801F470115368CF
:101FB00003F48033022404EB914133B153689B0353
:101FC00007D50D4B59430160E0E70B4B59430160C6
:101FD000DCE7074B59430160D8E7000000100240DE
:101FE000002002400000FFF8FFFFF6FE08ED00E0D1
:101FF00000127A00280E002000093D0006488047A4
:1020000006480047FEE7FEE7FEE7FEE7FEE7FEE7DD
:10201000FEE7FEE7FEE7FEE7311F0008ED000008DF
:1020200010B59C49884209D10121042000F07DFAB5
:102030000021BDE81040042000F077BA964988429C
:1020400009D10121082000F070FA0021BDE81040FC
:10205000082000F06ABA9149884209D10121102074
:1020600000F063FA0021BDE81040102000F05DBAD6
:102070008B49884209D10121202000F056FA002125
:10208000BDE81040202000F050BA8649884209D1AE
:102090000121402000F049FA0021BDE81040402015
:1020A00000F043BA8049884209D10121802000F024
:1020B0003CFA0021BDE81040802000F036BA7B4990
:1020C00088420AD184150121204600F02EFA2046CC
:1020D000BDE81040002100F028BA10BD10B5012164
:1020E000084600F022FA0021BDE81040012000F06F
:1020F0001CBA2DE9F0410022CC7804F00F03E4066D
:1021000001D58C7823430C784FF00F0714F0FF0FA4
:102110004FF0010C1CD005680CFA02F40E88264022
:10212000A64211D1960007FA06F825EA080503FA37
:1021300006F848EA0505CE78282E02D0482E02D0AF
:1021400002E0446100E00461521C082AE4D3056007
:102150000A88FF2A1ED94568002202F108060CFAF7
:1021600006F40E882640A64210D1960007FA06F81B
:1021700025EA080503FA06F848EA0505CE78282E70
:1021800000D14461CE78482E00D10461521C082A47
:10219000E3D34560BDE8F0814FF6FF710180022175
:1021A00081700421C17070470246002092680A4283
:1021B00000D001207047806880B27047024600203E
:1021C000D2680A4200D001207047C06880B27047D0
:1021D0000161704741617047002A01D00161704779
:1021E00041617047C160704741F480328261816112
:1021F000826181698069704710B52D4B1A684FF66E
:102200008074224042EA00100843186010BD29493A
:10221000C8617047F0B5264C002801DAE36900E098
:102220006368C0F30346420D120185B2C0F3015743
:102230009540032F07D0C2020CD50322B24093432E
:1022400043F0706209E023F07062636823F070630A
:10225000636002E0AB4343F0706201B12A4300289F
:1022600001DAE261F0BD6260F0BD10B58A07120FBD
:102270000F23934021F003040D4921448C689C43B3
:102280008C608B68904003438B6010BD0949DC3142
:102290000860704700080140000C01400010014038
:1022A0000014014000180140001C014000200140C2
:1022B0000000014000002042B448016841F00101E3
:1022C00001604168B24A114041600168B14A114061
:1022D0000160016821F480210160416821F4FE0160
:1022E00041604FF41F0181607047A8490A6822F4D9
:1022F00080320A600A6822F480220A60B0F5803FCA
:1023000007D0B0F5802F03D1086840F4A020086002
:102310007047086840F4803008607047034600202A
:1023200059099A4A01290AD002290AD0516A03F0B0
:102330001F02012393400B4200D001207047116817
:10234000F5E7116AF3E718B5002000904FF4A06498
:102350003120FFF7E3FF0099491C00910099A14249
:1023600001D00028F4D03120FFF7D8FF08B10120B8
:1023700018BD002018BD854A116821F0F80141EA16
:10238000C000106070478449086070477F4B5A68EE
:1023900022F47C1208431043586070477E49086657
:1023A00070477A4A516821F0030101435160704738
:1023B0007648406800F00C007047744A516821F07C
:1023C000F001014351607047704A516821F4E061A7
:1023D0000143516070476D4A516821F4605141EAF0
:1023E000C00050607047694A002903D0517A014308
:1023F00051727047517A8143517270476649D831A2
:1024000008607047614A516821F4404101435160BE
:1024100070475E49002220310A7001F82029012806
:1024200005D0042802D1052081F820007047012042
:1024300081F82000704759490860704753490A6A7B
:1024400002430A627047554944390860704710B525
:102450004E4A516801F00C01514B002927D0042944
:1024600027D0082927D00360516801F0F00109093D
:102470004C4B5C5C0168E1404160546804F4E064EA
:10248000240A1C5D21FA04F48460546804F4605446
:10249000E40A1B5DD940C160526802F44042920BCD
:1024A000404B1B1F9A5CB1FBF2F1016110BD036050
:1024B000DAE70360D8E7516801F47011536803F458
:1024C0008033022404EB914133B153689B0307D559
:1024D000354B59430160C7E7334B59430160C3E7AC
:1024E0002F4B59430160BFE7284A002903D05169A7
:1024F0000143516170475169814351617047234ADB
:10250000002903D09169014391617047916981432A
:10251000916170471D4A002903D0D1690143D161FF
:102520007047D1698143D1617047184A002903D0AF
:10253000D1680143D1607047D1688143D160704751
:10254000124A002903D011690143116170471169D2
:1025500081431161704711494039086070470E4945
:10256000C86470470949C87170470848416A41F01A
:1025700080714162704701460020044A92680A4215
:1025800000D0012070470149887270470010024056
:102590000000FFF8FFFFF6FE0000424280044242C6
:1025A00000127A00400E002000093D0010B5E149FC
:1025B00088420AD101218C032046FFF7B6FF20464E
:1025C000BDE810400021FFF7B0BFDB4988420AD1C7
:1025D00001214C042046FFF7B3FF2046BDE8104020
:1025E0000021FFF7ADBFD54988420AD101218C04F3
:1025F0002046FFF7A5FF2046BDE810400021FFF769
:102600009FBFCF4988420AD10121CC042046FFF761
:1026100097FF2046BDE810400021FFF791BFC94950
:1026200088420AD101210C052046FFF789FF204688
:10263000BDE810400021FFF783BF10BD30B585B065
:1026400004460D46208A4CF6FF710840E988014394
:102650002182A0894EF6F3110840A9882A891143E6
:102660006A8902431143A181A08A4FF6FF410840C5
:10267000A9890143A1826846FFF7E9FEAD4884427B
:1026800001D1039800E00298A189090408D500EB64
:10269000C00101EB001029684900B0FBF1F007E030
:1026A00000EBC00101EB001029688900B0FBF1F0DC
:1026B0006422B0FBF2F109010B096FF018056B43BE
:1026C00000EB8300A3891D044FF0320307D503EB11
:1026D000C000B0FBF2F000F00700084306E003EB97
:1026E0000010B0FBF2F000F00F000843208105B0AD
:1026F00030BD4FF41651016000218180C1800181FD
:102700000C2242818181704710B5038A4FF2FF028B
:1027100013400A884C8822438C88C9880C43224382
:102720001A43028210BD0021018041808180C18056
:102730007047002904D0818941F40051818170479C
:10274000818921F400518181704710B540F66A13E8
:10275000C1F3421301F01F040121A140012B07D056
:10276000022B07D014303AB102680A43026010BD50
:102770000C30F8E71030F6E702688A43026010BDBB
:10278000002A03D0828A0A4382827047828A8A435F
:1027900082827047028A22F00F020282028A0A4372
:1027A00002827047828922F40062828182890A4310
:1027B00082817047002904D0818941F00201818122
:1027C0007047818921F0020181817047028A22F0DD
:1027D00020020282028A0A4302827047002904D042
:1027E000018A41F4804101827047018A21F48041CD
:1027F00001827047C1F30801818070478088C0F36F
:1028000008007047818941F0010181817047028B86
:10281000D2B20283028B42EA012101837047028B0C
:1028200002F47F420283028B0A430283704700292D
:1028300004D0818A41F0200181827047818A21F091
:10284000200181827047002904D0818A41F0100163
:1028500081827047818A21F01001818270470029AE
:1028600004D0818A41F0080181827047818A21F079
:10287000080181827047002904D0818941F4004118
:10288000818170478189C1F30E01818170470029E0
:1028900004D0818A41F4006181827047818A21F4E9
:1028A000006181827047828A22F004028282828AD9
:1028B0000A4382827047002904D0818A41F00201D4
:1028C00081827047818A21F002018182704702462D
:1028D000002012880A4200D0012070478A05C943AF
:1028E0000180704770B5002440F66A12C1F34213AC
:1028F00001F01F05012606FA05F2012B0CD0022B70
:102900000DD0838A1340090A8E40008830400BB1F5
:1029100000B10124204670BD83891340F3E7038A88
:102920001340F0E740F66A120A0A01219140C943B8
:1029300001807047003801400044004000480040DA
:10294000004C004000500040D2B201E000F8012BE2
:10295000491EFBD270470022F6E710B513460A461F
:1029600004461946FFF7F0FF204610BD2DE9F05F41
:102970000546002092469B468846064681464024EE
:102980001BE0284641464746224600F042F853469F
:102990005A46C01A914110D311461846224600F0FB
:1029A00029F82D1A67EB01084F4622460120002125
:1029B00000F020F817EB00094E41201EA4F101049D
:1029C000DFDC484631462A464346BDE8F09F00001A
:1029D000064C074D06E0E06840F0010394E807006C
:1029E00098471034AC42F6D3FDF784FBBC300008A6
:1029F000DC300008202A04DB203A00FA02F1002033
:102A000070479140C2F1200320FA03F3194390402C
:102A10007047202A04DB203A21FA02F00021704797
:102A200021FA02F3D040C2F1200291400843194636
:102A3000704770B58D1810F8014B14F0030201D1E6
:102A400010F8012B231106D110F8013B03E010F818
:102A5000016B01F8016B521EF9D1ABB110F8012BDB
:102A600004F00C048A1A0C2C03D0A2EB84129B1CD9
:102A700008E010F8014BA2EB0422F8E712F8014B32
:102A800001F8014B5B1EF9D5A942D4D3002070BDDB
:102A90000FB4054B10B503A9044A029800F018F8CA
:102AA00010BC5DF814FB000021020008500E00204D
:102AB00002E008C8121F08C1002AFAD17047704707
:102AC000002001E001C1121F002AFBD17047000065
:102AD0002DE9FF4F8DB00F460546002606E025285C
:102AE0000BD0DDE90F1290476D1C761C287800286A
:102AF000F5D111B03046BDE8F08F0024A246A146C2
:102B00000122EC4900E0044315F8013F203B02FAA2
:102B100003F00842F7D128782A2810D06FF02F024E
:102B20002878A0F13001092914D80AEB8A0102EBB8
:102B3000410144F0020400EB010A6D1CF0E701CFF3
:102B40005FEA000A03D544F40054CAF1000A44F0D5
:102B500002046D1C28782E2817D115F8010F44F0B7
:102B600004042A280ED06FF02F022878A0F130013B
:102B700009290AD809EB890102EB410100EB01099F
:102B80006D1CF2E757F8049B6D1C28786C280FD059
:102B900006DC4C2817D068280DD06A2814D104E030
:102BA000742810D07A280FD10DE044F400140AE004
:102BB00044F4801401E044F440146978814202D165
:102BC00004F580146D1C6D1C2A786E2A1FD00CDC55
:102BD000632A31D004DC002A8BD0582A11D1A3E01B
:102BE000642A68D0692A0CD165E0732A2ED004DCEF
:102BF0006F2A73D0702A04D19BE0752A6FD0782A8F
:102C00006ED01046DDE90F129047761C50E1C4F3F8
:102C10000250022806D0032809D0042801CF09D089
:102C2000066045E101CFF117C0E9006140E101CF45
:102C300006803DE106703BE117F8040B8DF80000BB
:102C400000208DF80100EB46012003E057F804BB9B
:102C50004FF0FF3061074FF0000102D40DE008F1A2
:102C60000101884649450FDA8045F8DB1BF808105A
:102C70000029F4D108E008F1010188468142FADB1D
:102C80001BF808100029F6D1DDE90F23AAEB080094
:102C90008146214600F036F9304400EB080604E096
:102CA000DDE90F121BF8010B9047B8F10108F7D2CC
:102CB00021464846F7E00A21C4F302534FF0000BC7
:102CC0000891022B04D001CFC117032B09D00AE0D1
:102CD000FF1D27F00707F7E8020108E032E01FE0D8
:102CE00020E000B2C117042B01D140B2C117031E6E
:102CF00071F1000307DA4FF0000CD0EB0C006CEB25
:102D000001012D2302E0230504D52B238DF8243067
:102D1000012303E0E30701D02023F7E7984658E0BA
:102D20000A2110E010210EE010204FF0000B089057
:102D30000CE010214FF0000B44F004044FF00809A0
:102D4000089103E008214FF0000B0891C4F30253EF
:102D5000022B04D001CF0021032B06D006E0FF1D7B
:102D600027F00707F7E8020103E080B2042B00D147
:102D7000C0B24FF0000823072BD5702A07D0DDF82A
:102D800020C08CF0100C5CEA0B0C05D00EE0402348
:102D90008DF82430012308E050EA010306D03023E7
:102DA0008DF824308DF8252002239846DDF820C0C8
:102DB0008CF0080C5CEA0B0C0BD150EA010301D13A
:102DC000630706D530238DF824304FF00108A9F1B0
:102DD0000109582A04D038A20B9208AA0A920BE0E3
:102DE0003AA2F9E75B46089AFFF7C0FD0B9B9B5C94
:102DF0000A9A521E0A92137050EA0102F2D10A98FE
:102E0000ADEB000000F1200B600702D524F4803404
:102E100001E04FF00109D94502DDA9EB0B0000E00C
:102E2000002000EB0B0141440890AAEB010AE003EB
:102E300006D4DDE90F232146504600F063F806442E
:102E40004FF0000908E009A911F80900DDE90F12A7
:102E5000904709F10109761CC145F4DBE0030CD56C
:102E6000DDE90F232146504600F04CF8064404E00B
:102E7000DDE90F1230209047761C0899481E089013
:102E80000029F5DC08E00A980A990078491C0A91A3
:102E9000DDE90F129047761CBBF10001ABF1010B8D
:102EA000F1DC21465046DDE90F2300F019F8064415
:102EB0006D1C1BE6092801003031323334353637BA
:102EC0003839616263646566000000003031323376
:102ED0003435363738394142434445460000000016
:102EE0002DE9F041044600251E461746880404D407
:102EF00005E039462020B0476D1C641EF9D52846F0
:102F0000BDE8F0812DE9F041044600251E469046BB
:102F1000C80301D5302700E02027880404D505E048
:102F200041463846B0476D1C641EF9D52846BDE8B9
:102F3000F081000000BE0AE00D782D0668400824EC
:102F4000400000D35840641EFAD1491C521E002A8A
:102F5000F2D1704710B503460020444C206044482D
:102F60006060444860602046C06910F0040F08D1DA
:102F700045F25550404C20600620606040F6FF70DE
:102F8000A060002010BD01463848006940F0800074
:102F9000364A1061002070473448006940F0040050
:102FA000324908610846006940F04000086103E0CA
:102FB0004AF6AA20304908602C48C06810F0010F7A
:102FC000F6D12A48006920F0040028490861002051
:102FD000704701462548006940F00200234A10610D
:102FE00010464161006940F04000106103E04AF67C
:102FF000AA20214A10601D48C06810F0010FF6D1C8
:103000001A48006920F00200184A10610020704739
:1030100010B50346481C20F0010122E01348006966
:1030200040F00100114C20611088188000BF0F484B
:10303000C06810F0010FFAD10C48006920F00100BF
:103040000A4C20612046C06810F0140F06D02046BC
:10305000C06840F01400E060012010BD9B1C921C71
:10306000891E0029DAD10020F7E700000020024085
:1030700023016745AB89EFCD003000400000000020
:103080002100002053000020650000209F00002048
:10309000DD00002001000020000C002000100020B6
:1030A00000040020000000204C010000342F000824
:1030B00000040000312E313000000000DC30000838
:1030C00000000020540E0000322A0008703B000867
:1030D000540E00201C080000C02A00082004000430
:1030E0000001100F0830040020F90300080104005B
:1030F000080304120504120704120910D200011279
:103100000B18520D18120F0C12110402ED13044487
:103110000FDFF80CD000F006FE00480047A9014080
:10312000302230B587B00121042000F0D5FB3D4CA2
:10313000A06806903D4D06A9284600F0C7F9E16851
:103140000591050C101AC1F90121880300F0C3FB99
:103150004FF4614001900020ADF80800ADF80A047A
:10316000120C04100410000C1210080E002F4C0159
:10317000A9203020054EFC0121081010C5FC07B025
:1031800030BD1CB5FFF7CBFF01211066300CA2FB50
:10319000244C20680190254D015A4394F97E100C6F
:1031A00096FB616800911E4F69463816200D89F91B
:1031B0001E4E4FF400480A2401218C4007E6F9789E
:1031C000B100220C3004EEF941241016D2F938B1C6
:1031D00016A000F0B0FD0022336807E00122EEE700
:1031E0001710301AA8FDF6E700BF521CB3FBF4F02D
:1031F0009042DED9F8E770B50446084D804A2009B0
:103200004AFD0028F9D0A1B256180BD7FC20467011
:10321000BD0000B80D181006080140003804121057
:1032200004102500002048692046726F6D2058491F
:10323000564E31393837210D0A000D0A4B65792079
:10324000507265737365641111131004000CB59806
:10325000304D9200925248016841F4803101604F34
:10326000F4A063016801F4003100910199491C0147
:1032700091009911B901999942F3D101688903022A
:10328000D50121009100E000920099012930D1453B
:10329000490A6842F010020A600A6822F003081026
:1032A0000442F002086004416841042004F4806193
:1032B0000C400521F47C111012E80811721005F081
:1032C0008071010810058901FCD51E3004F003014E
:1032D0002E33F002082010C1F381010229FAD10C2B
:1032E000BDABE710B52AA21005F001010158200579
:1032F000294A1140401228082140200521F480214C
:1033000018100421F4FE3A10284FF41F018160FFC9
:10331000F7E4FF21494FF00060086010BD10B51AB6
:103320004A506800F00C011D4B1D4800290ED004C6
:1033300004120808101403605168194AC1F30311FC
:10334000121D515C0268CA400230140A0360F3E7A0
:103350000360F1E7510A30207011536803F48033A1
:10336000022404EB914133B153689B0307D50D4B05
:1033700059430160E0E70B083004DCE7070817D881
:10338000E77E1006100240002004140A00FFF8FF38
:10339000FFF6FE08ED2E2F127ABB03180B20000952
:1033A0003D000648804706C40310FEE7021E2D10AC
:1033B000041A31DC480910B59C49884209D15E20C5
:1033C000097DFA0021BDE810400C500477BA961A26
:1033D00012080E52701A210C50046ABA911A29AAC6
:1033E00052631A210C50045DBA8B1A12200E5256E9
:1033F0001A210C500450BA861A12400E52491A2152
:103400000C500443BA801A12800E523C1A210C1040
:103410000436BA7B1A4C050AD18415260320052EE2
:10342000FA20469E2407002100F028BA6C119C1156
:10343000185222B612013410401CBA2DE9F0410096
:1034400022CC7804F00F03E40601D58C7823430CDA
:10345000784FF00F0714F0FF0F4FF0010C1CD00550
:10346000680CFA02F40E882640A64211D196000795
:10347000FA06F825EA08050308100C48EA0505CE07
:1034800078282E02D04804502202E0446100E00473
:1034900061521C082AE4D305600A88FF2A1ED94518
:1034A00068002202F108060CFA06460215104610C2
:1034B0000800D14461CE7848084144402BE3D3450D
:1034C00060BDE8F0814FF6FF710180022181700438
:1034D00021C17070470246002092680A4200D00164
:1034E000207047806880B21472D21432C014100663
:1034F0000161704741046005002A01D00C13C160CE
:10350000081008F4803282618161041819698069A9
:10351000704710B52D4B1A684FF68074224042EA6E
:1035200000100843189E10042949C8301034F0B523
:10353000264C002801DAE36900E06368C0F3034623
:10354000420D120185B2C0F301579540032F07D0F9
:10355000C2020CD50322B240934343F0706209E0EB
:10356000230613636806300763636002E0AB16202E
:103570000501B12A43461808E261F0BD6260F0FA25
:103580001C098A07120F0F23934060031C13040DBC
:103590004921448C689C438C608B68904003438B2A
:1035A0001C0310060949DC3108AC3D44045E0C44A0
:1035B000041E1450041E1854041E1C58042E2054BB
:1035C0000421049C042042B486035EB286030E19D3
:1035D000B186031C047047A820041622063D20046F
:1035E000100CF480220A60B0F5803F07D006200A54
:1035F0002F03D1086840F4A0207E210A2380300ADE
:10360000160374100A59099A4A01290AD0020410B3
:1036100008516A03F01F0201C2560B881C0B116887
:10362000F5E7116AF3E718B552031E90B2041C09BE
:10363000643120FFF7E3FF00B0041D9C04200A99C9
:10364000A14201D00028F4D016100AD8FF08B10119
:103650002018BD00041C04854A1166041008F801F6
:1036600041EAC000109C2384497A10047F4B5A9A87
:1036700010087C120843104358103C0A7E49086623
:1036800070477A4A5192041004014351142C047675
:1036900048403E043005007047741852F0182270FC
:1036A0000E4004F4E0610E326D0E23605160125042
:1036B000101009694A002903D0517A44300772700A
:1036C00047517A810834046649D87032612E4340EC
:1036D000413C101A5E49002220310A7001F820296D
:1036E000012805D0042802D1052081F82074520158
:1036F000083259B0200F53490A6A02430A627047E0
:103700005549443912100410B54EAE1E01DE041C9A
:1037100006514B002927DC041E27DC043E27DC046D
:103720001201AC140A09094C4B5C5C0168E1B03031
:1037300010546804F4E064240A1C5D21FA04F48443
:10374000102C1F6054E40A1B5DD940C1605268020E
:10375000F44042920B404B1B1F9A5CB1FBF2F1010B
:10376000610E051EDA0E050E19D80E053E35FE0453
:103770003004C7E733083004C3E72F084404BFE729
:1037800028021669021D120330045169810836238C
:10379000181291161E9128031291162108321D1637
:1037A00012D1161ED10E0312D1162108421816127C
:1037B0006816194E3004D168810832125812115817
:1037C000121124121158310837494010180B0E49B4
:1037D000C86470470949C871582C0448416A680692
:1037E0001641301A015A8F044AD003140401498843
:1037F000983DB0055DAC052C0900004242800442B2
:1038000042B0055E18B0053C0410B5E1F0046C0B45
:1038100001218C032046FFF7B6FFF0045006FFF7A6
:10382000B0BFDB1C234C041C92B31C6004ADBFD59D
:1038300038311C92A51C50049FBFCF1C32CC1C9267
:10384000971C500491BFC954230C051C92891C1C61
:103850001083BF10BD30B585B004460D46208A4C9C
:10386000AE041C210840E98801432182A0894EF65C
:10387000F3110840A9882A8911436A890243114338
:10388000A181A08AD2041241161007890143A182A6
:1038900068BE8027E9FEAD48844201D1039800E06C
:1038A0000298A189090408D500EBC00101EB0010C2
:1038B00029684900B0FBF1F007E0123289121804C0
:1038C0006422B00C1C1609010B096FF018056B433C
:1038D00000EB8300A3891D044FF0320C0710040392
:1038E000EBC026100CF2F000F00700084306E003DE
:1038F0003A4110120F101C0420810546092C154F67
:10390000F41651016000218180C18001810C2242A6
:1039100081818110052023038A4FF2FF0213400AA0
:10392000884C8822438C88C9880C4322431A43025E
:103930008210BD002101804180321D5A05200A29D4
:1039400004D0818941F400513850048189210A1042
:103950001810B540F66A13C1F3421301F01F0401B9
:1039600021A140012B07D002042C0914303AB102E6
:10397000680A43D007300C0C30F8E71030F6E70245
:10398000688A103010002A03D0828A0A438282702B
:1039900047828A8A08100A028A22F00F02028202F3
:1039A00018220218100A8922F40062828182892872
:1039B0007281821D9E085182510A2138922038213D
:1039C000281F018AF408134101565004018A210A74
:1039D0001006C1F3080181CA1C068088C0F3084A9A
:1039E00004214C420142200E8BD2B20283028B4250
:1039F000EA0121018310200502F47F4212118A524C
:103A000083FC10078A41F0200181985004818A21AB
:103A10000A6118721018B210187208188208182556
:103A2000444641443004C1F30EC251605004F400D6
:103A30006160510A1682126405040282822A61586A
:103A4000720258410A2D26076F1288120710068A43
:103A500005C94301E8140570B500249C56129C1456
:103A60000B05012606FA05F2012B0C9E2C150DD034
:103A7000838A1340090A8E40008830400BB100B1A0
:103A80000124CE0A1C05838913407A09111C23F0F6
:103A9000E73C40070A0A01219140503DE00A1C041E
:103AA000440040000C100440004C041C2150004015
:103AB000064C074D06E0E06840F0010394E807007B
:103AC00098471034AC42F6D3FFF7ECF9C8180B1244
:103AD000E8041C0E014A024900F013B8290200084C
:103AE00028C5061C0D02E008C8121F08C1002AFAEA
:103AF000D1C2051E47E0061009E001C1121F002ACD
:103B0000FB102DA8081C1A16460F46044600250374
:103B1000E03946B047641C6D1C20780028F8D12895
:103B2000F8032013F0810100031000800248000216
:103B3000031800040204642D740B1E2C790B1278F8
:103B4000741005140E00080C1F2004E80D2E889C2C
:103B50000B6C04A24A04C80D600D010203040607A1
:103B6000080902040608106114EDF40D012A38005A
:04000005080000ED02
:00000001FF
